S0110000434C4153455F4C43442E7372656379
S113000045C0000060C000005EC000005CC000008D
S11300105AC0000058C0000056C0000054C0000080
S113002052C0000050C000004EC000004CC0000090
S11300304AC0000048C0000046C0000044C00000A0
S113004042C0000040C000003EC000003CC00000B0
S11300503AC0000038C0000036C0000034C00000C0
S113006032C0000030C000002EC000002CC00000D0
S11300702AC0000028C0000026C0000024C00000E0
S113008022C0000020C000001EC0000011241FBEBA
S1130090CFEFD0E4DEBFCDBF11E0A0E0B1E0EEE4ED
S11300A0F3E000E00BBF02C007900D92A832B10745
S11300B0D9F721E0A8E2B1E001C01D92A932B2074C
S11300C0E1F7F5D042C19CCF80FD04C09BB19F7E77
S11300D09BB903C09BB190619BB981FD04C09BB1E6
S11300E09F7D9BB903C09BB190629BB982FD04C004
S11300F09BB19F7B9BB903C09BB190649BB983FD6B
S113010004C08BB18F778BB903C08BB180688BB976
S11301108BB18D7F8BB98BB182608BB98BB18D7FA5
S11301208BB98BED95E00197F1F700C000000895BD
S1130130CF93C82F662319F0613029F007C08BB123
S11301408B7F8BB903C08BB184608BB98C2F829564
S11301508F70BADF8C2F8F70B7DFCF91089561E075
S1130160E7CF089560E0E4CF08958AB1866F8AB935
S11301708BB189708BB92FE58AEE90E021508040D5
S11301809040E1F700C0000083E09EDF83E190E54A
S11301900197F1F700C0000083E096DF83EF91E060
S11301A00197F1F700C0000083E08EDF82E08CDF6E
S11301B088E2D8DF96EF9A95F1F700C087E0809344
S11301C028018FE0CFDF26EF2A95F1F700C081E008
S11301D0C9DF8FE097E20197F1F700C000000895AE
S11301E0CF93DF93EC0102C0BADF2196888181119D
S11301F0FBCFDF91CF910895E82FF0E0E15FFE4F50
S11302008081860F81508068ADCF089581E0AADF98
S11302108FE097E20197F1F700C000000895809104
S113022028018E7F8093280188609CDF86EF8A9561
S1130230F1F700C00895809128018D7F80932801F3
S1130240886090DF86EF8A95F1F700C0089588E111
S113025089DF86EF8A95F1F700C008958CE182DF8B
S113026086EF8A95F1F700C008950F931F93CF93FB
S11302708B01877090E0880F991F880F991F880F52
S1130280991F80646FDFC0E006C0F801EC0FF11D18
S1130290808165DFCF5FC830C0F380E863DF86EF1D
S11302A08A95F1F700C0CF911F910F9108955DDFFA
S11302B0B6DFC1DF68E071E080E0D7DF60E071E0C5
S11302C081E0D3DF84E191E08BDFC0E0D0E00CC0BB
S11302D02FE78FE492E1215080409040E1F700C085
S11302E000008EE23CDF2196C630D1058CF38EDF10
S11302F065E083E081DF80E032DF8EE191E070DF52
S113030081E02DDFC0E0D0E00BC02FE78FE492E165
S1130310215080409040E1F700C000009FDF21960B
S1130320C530D10594F3C0E0D0E00BC02FE78FE4D3
S113033092E1215080409040E1F700C0000087DF47
S11103402196C530D10594F3D3CFF894FFCFA6
S113034E0E1B111111111F000E0E0A0E1B1F15008C
S113035E00401454496E696369616E646F002069CC
S10B036E536562617320000075
S9030000FC
