S0110000434C4153455F4144432E7372656384
S1130000C6C0000025C2000054C2000083C2000024
S1130010B2C20000E1C2000010C300003FC30000F0
S1130020D4C00000D2C00000D0C00000CEC0000088
S1130030CCC00000CAC00000C8C00000C6C0000098
S1130040C4C00000C2C00000C0C00000BEC00000A8
S1130050BCC00000BAC00000B8C00000B6C00000B8
S113006084C10000B2C00000B0C00000AEC00000F7
S1130070ACC00000AAC00000A8C00000A6C00000D8
S1130080A4C00000A2C00000A0C000006E616E0009
S1130090696E660000407A10F35A00A0724E180987
S11300A00010A5D4E80000E87648170000E40B54DB
S11300B0020000CA9A3B000000E1F50500008096AA
S11300C09800000040420F000000A08601000000DC
S11300D0102700000000E803000000006400000096
S11300E000000A00000000000100000000002C765F
S11300F0D888DC674F0823DFC1DFAE59E1B1B7967A
S1130100E5E3E453C63AE651997696E8E6C28426D6
S1130110EB898C9B62ED407C6FFCEFBC9C9F40F2B2
S1130120BAA56FA5F490055A2AF75C936B6CF9672E
S11301306DC11BFCE0E40D47FEF520E6B500D0EDF3
S1130140902E0300943577050080841E080000205B
S11301504E0A000000C80C333333330F986E1283F9
S11301601141EF8D2114893BE65516CFFEE6DB18CD
S1130170D1844B381BF77C1D901DA4BBE424203292
S113018084725E228100C9F124ECA1E53D2711248B
S11301901FBECFEFD0E4DEBFCDBF11E0A0E0B1E0E1
S11301A0EAE7F6E100E00BBF02C007900D92A63229
S11301B0B107D9F721E0A6E2B1E001C01D92A33650
S11301C0B207E1F78AD30C943B0B1ACFECE7F0E0CB
S11301D090818295880F880F807C9F73892B808300
S11301E00895EAE7F0E09081987F8770892B8083F7
S11301F00895883010F480E008958FEF0895ECE7B7
S1130200F0E09081907F8F70892B8083EAE7F0E0A3
S11302108081806480830895CF93DF930097C9F130
S1130220FC018081C6E2D1E0888391819983228197
S113023033813B832A8394819C8391E09D831F8235
S11302401E821B86188A1D861C861E861F86BEDF9C
S11302508981C7DFEAE7F0E08081806880838C8150
S1130260882319F0808188608083ECE7F0E0808146
S1130270807F8083EAE7F0E08081806480838091DE
S11302807A0086FDFCCF809178009091790080E01F
S113029001C08FEFDF91CF9108950F931F93CF93F8
S11302A0DF9390912B01992301F18B01C82FA1DFDA
S11302B0D82F81111CC080912A01811111C0011510
S11302C01105B9F08C2F9BDF80917A0086FDFCCF5D
S11302D08091780090917900F801918380830AC01D
S11302E0109231018C2F8BDF05C0DFEF03C0DFEFED
S11302F001C0DFEF8D2FDF91CF911F910F910895F2
S1130300EF92FF921F93CF93DF9300D0CDB7DEB768
S113031061157105E1F090912A0191111AC07B01D8
S1130320BE016F5F7F4FB9DF182F811114C029817F
S11303303A81A0912801B0912901CED72FEF33E063
S113034040E050E0A7D7F7013183208305C01FEFB9
S113035003C01FEF01C01FEF812F0F900F90DF919B
S1130360CF911F91FF90EF9008951F920F920FB6B7
S11303700F9211240BB60F922F933F934F935F93D9
S11303806F937F938F939F93AF93BF93EF93FF9359
S1130390609178007091790080917C008F70E6E222
S11303A0F1E071876087828791E093879089992330
S11303B089F1978544855585292F30E0F901EE0FA1
S11303C0FF1F2E0F3F1FFA01E20FF31F0180F2817E
S11303D0E02D309709F00995E6E2F1E087858F5F1B
S11303E0878797858685981780F424853585978532
S11303F0892F90E0FC01EE0FFF1F8E0F9F1FF90164
S1130400E80FF91F8081FBDE10C0E6E2F1E0108AFC
S113041017860BC020912C0130912D01232B29F03C
S1130420E0912C01F0912D010995FF91EF91BF917D
S1130430AF919F918F917F916F915F914F913F9178
S11304402F910F900BBE0F900FBE0F901F90189519
S11304501F920F920FB60F9211240BB60F922F9387
S11304603F934F935F936F937F938F939F93AF9338
S1130470BF93EF93FF9380913F0190914001892BAB
S113048029F0E0913F01F09140010995FF91EF912E
S1130490BF91AF919F918F917F916F915F914F9198
S11304A03F912F910F900BBE0F900FBE0F901F9096
S11304B018951F920F920FB60F9211240BB60F923C
S11304C02F933F934F935F936F937F938F939F9358
S11304D0AF93BF93EF93FF938091410190914201B9
S11304E0892B29F0E0914101F09142010995FF9196
S11304F0EF91BF91AF919F918F917F916F915F9198
S11305004F913F912F910F900BBE0F900FBE0F9004
S11305101F9018951F920F920FB60F9211240BB6CD
S11305200F922F933F934F935F936F937F938F9388
S11305309F93AF93BF93EF93FF9380914301909167
S11305404401892B29F0E0914301F091440109957C
S1130550FF91EF91BF91AF919F918F917F916F9197
S11305605F914F913F912F910F900BBE0F900FBE53
S11305700F901F9018951F920F920FB60F9211248F
S11305800BB60F922F933F934F935F936F937F9389
S11305908F939F93AF93BF93EF93FF938091370112
S11305A090913801892B29F0E0913701F0913801BD
S11305B00995FF91EF91BF91AF919F918F917F9199
S11305C06F915F914F913F912F910F900BBE0F90C0
S11305D00FBE0F901F9018951F920F920FB60F9297
S11305E011240BB60F922F933F934F935F936F9306
S11305F07F938F939F93AF93BF93EF93FF938091D8
S1130600390190913A01892B29F0E0913901F09157
S11306103A010995FF91EF91BF91AF919F918F910D
S11306207F916F915F914F913F912F910F900BBEEE
S11306300F900FBE0F901F9018951F920F920FB638
S11306400F9211240BB60F922F933F934F935F9306
S11306506F937F938F939F93AF93BF93EF93FF9386
S113066080913B0190913C01892B29F0E0913B0161
S1130670F0913C010995FF91EF91BF91AF919F914A
S11306808F917F916F915F914F913F912F910F9037
S11306900BBE0F900FBE0F901F9018951F920F92D4
S11306A00FB60F9211240BB60F922F933F934F93D3
S11306B05F936F937F938F939F93AF93BF93EF93C6
S11306C0FF9380913D0190913E01892B29F0E091A7
S11306D03D01F0913E010995FF91EF91BF91AF91DA
S11306E09F918F917F916F915F914F913F912F9146
S11306F00F900BBE0F900FBE0F901F90189580FDAA
S113070004C092B19F7E92B903C092B1906192B934
S113071081FD04C092B19F7D92B903C092B19062F1
S113072092B982FD04C092B19F7B92B903C092B189
S1130730906492B983FD04C082B18F7782B903C0FB
S113074082B1806882B982B18D7F82B982B18260C0
S113075082B982B18D7F82B98BED95E00197F1F773
S113076000C000000895CF93C82F662319F06130AC
S113077029F007C082B18E7F82B903C082B1816043
S113078082B98C2F82958F70BADF8C2F8F70B7DF70
S1130790CF91089561E0E7CF089560E0E4CF089534
S11307A081B1816081B981B1826081B981B1806197
S11307B081B981B1806281B981B1806481B981B12B
S11307C0806881B982B18E7F82B982B18D7F82B90E
S11307D082B18F7E82B982B18F7D82B982B18F7BE3
S11307E082B982B18F7782B92FE58AEE90E02150E9
S11307F080409040E1F700C0000083E080DF83E1A7
S113080090E50197F1F700C0000083E078DF83EF03
S113081091E00197F1F700C0000083E070DF82E00F
S11308206EDF88E2BADF96EF9A95F1F700C087E0B1
S113083080935A018FE0B1DF26EF2A95F1F700C0CB
S113084081E0ABDF8FE097E20197F1F700C0000091
S11308500895CF93DF93EC0102C09CDF2196888139
S11308608111FBCFDF91CF910895E82FF0E0EC5F89
S1130870FE4F8081860F815080688FCF0895CF937B
S1130880DF93CDB7DEB79E012B5F3F4FF901419156
S113089051919F0165E170E085E491E056D685E4CD
S11308A091E0D7DFDF91CF91089580915A018E7F37
S11308B080935A01886071DF86EF8A95F1F700C052
S11308C0089580915A018D7F80935A01886065DF75
S11308D086EF8A95F1F700C00895CF93DF9300D097
S11308E000D01F92CDB7DEB75BDFDFDFEADF85E044
S11308F0E0E0F1E0DE01119601900D928A95E1F7B6
S1130900CE01019689DC6BE571E083E0F9DC61E6F8
S113091071E082E0F5DC609161017091620180E038
S113092090E03ED02DEC3CEC4CEC5DE376D0609353
S11309305D0170935E0180935F019093600161E0BB
S113094081E093DF80915C018F9380915B018F93B1
S113095089E091E09F938F9392DF61E082E085DFED
S1130960809160018F9380915F018F9380915E01EC
S11309708F9380915D018F9386E191E09F938F9394
S11309807EDF2FE78AE196E0215080409040E1F736
S113099000C000000FB6F894DEBF0FBECDBFB3CFCA
S11309A0E89409C097FB3EF4909580957095619505
S11309B07F4F8F4F9F4F9923A9F0F92F96E9BB27BB
S11309C09395F695879577956795B795F111F8CF37
S11309D0FAF4BB0F11F460FF1BC06F5F7F4F8F4FA2
S11309E09F4F16C0882311F096E911C0772321F098
S11309F09EE8872F762F05C0662371F096E8862F30
S1130A0070E060E02AF09A95660F771F881FDAF786
S1130A10880F9695879597F908950BD078C069D07B
S1130A2028F06ED018F0952309F05AC05FC0112445
S1130A30A2C07ED0A0F3959FD1F3950F50E0551F2F
S1130A40629FF001729FBB27F00DB11D639FAA271F
S1130A50F00DB11DAA1F649F6627B00DA11D661F6E
S1130A60829F2227B00DA11D621F739FB00DA11D8F
S1130A70621F839FA00D611D221F749F3327A00D49
S1130A80611D231F849F600D211D822F762F6A2FE5
S1130A9011249F5750408AF0E1F088234AF0EE0F6A
S1130AA0FF1FBB1F661F771F881F91505040A9F777
S1130AB09E3F510570F014C05EC05F3FECF3983E5A
S1130AC0DCF3869577956795B795F795E7959F5FDE
S1130AD0C1F7FE2B880F911D9695879597F9089578
S1130AE097F99F6780E870E060E008959FEF80ECDD
S1130AF0089500240A941616170618060906089580
S1130B0000240A9412161306140605060895092EE5
S1130B100394000C11F4882352F0BB0F40F4BF2B54
S1130B2011F460FF04C06F5F7F4F8F4F9F4F089594
S1130B3057FD9058440F551F59F05F3F71F047958A
S1130B40880F97FB991F61F09F3F79F0879508956F
S1130B50121613061406551FF2CF4695F1DF08C08E
S1130B60161617061806991FF1CF869571056105AB
S1130B7008940895E894BB2766277727CB0197F953
S1130B8008952F923F924F925F926F927F928F922D
S1130B909F92AF92BF92CF92DF92EF92FF920F9308
S1130BA01F93CF93DF93CDB7DEB760970FB6F8945A
S1130BB0DEBF0FBECDBF7C011B016A01FC011782A1
S1130BC01682838181FF2AC39E012F5F3F4F390123
S1130BD0F7019381F10193FD859193FF81911F01A9
S1130BE0882309F417C3853239F493FD859193FF63
S1130BF081911F01853231F4B70190E06AD4560126
S1130C006501E6CF10E0512C912CFFE1F915D8F0E5
S1130C108B3279F038F4803279F08332A1F4F92DF3
S1130C20F0612EC08D3261F0803369F4292D21608A
S1130C302DC0392D3260932E892D8460982E2AC0C0
S1130C40E92DE86015C097FC2DC020ED280F2A304F
S1130C5088F496FE06C03AE0139F200D1124122F4B
S1130C6019C08AE0589E200D1124522EE92DE0620D
S1130C709E2E10C08E3231F496FCCCC2F92DF06455
S1130C809F2E08C08C3621F4292D2068922E02C094
S1130C90883641F4F10193FD859193FF81911F0101
S1130CA08111B3CF9BEB980F933020F4992D906171
S1130CB0805E07C09BE9980F933008F059C1992DC5
S1130CC09F7E96FF16E09F73992E853619F49064E3
S1130CD0992E08C0863621F4392F3068932E02C02D
S1130CE01111115097FE07C01C3350F4442443944F
S1130CF0410E27E00BC0183038F027E017E005C09C
S1130D0027E09CE3492E02C0212F412C560184E0A8
S1130D10A80EB11CF6016081718182819381042D3A
S1130D20A301E9D26C01F981FC87F0FF02C0F3FF53
S1130D3006C091FC06C092FE06C000E205C00DE2AA
S1130D4003C00BE201C000E08C858C7019F0011126
S1130D5043C280C297FE10C04C0CFC85F4FF04C053
S1130D608A81813309F44A94141474F528E0241513
S1130D7078F588E0482E2CC096FC2AC0812F90E09C
S1130D808C159D059CF03CEFC3163FEFD30674F021
S1130D90892D8068982E0AC0E2E0F0E0EC0FFD1F78
S1130DA0E10FF11D8081803319F411501111F4CF3A
S1130DB097FE0EC044244394410E812F90E0C81640
S1130DC0D9062CF41C1904C04424439401C010E037
S1130DD097FE06C01C141D0434F4C601019605C018
S1130DE085E090E002C081E090E0011101961123BA
S1130DF031F0212F30E02F5F3F4F820F931F252DBD
S1130E0030E08217930714F4581A01C0512C892D2D
S1130E10897041F4552031F0B70180E290E059D354
S1130E205A94F8CF002321F0B701802F90E051D3DA
S1130E3093FC08C0552031F0B70180E390E049D31A
S1130E405A94F8CF97FE4AC04601D7FE02C0812CBF
S1130E50912CC60188199909F301E80FF91FFE873F
S1130E60ED87960124193109388B2F87012F10E063
S1130E701195019511093FEF8316930621F4B701EB
S1130E808EE290E026D3C814D9044CF08F8598895B
S1130E908815990524F4ED85FE85818101C080E3E0
S1130EA0F1E08F1A91082D853E852F5F3F4F3E87D5
S1130EB02D878016910624F0B70190E00AD3DBCF8A
S1130EC0C814D90441F49A81963320F4953319F463
S1130ED03C8534FF81E3B70190E048C08A818133C7
S1130EE019F09C859F7E9C87B70190E0F2D2111186
S1130EF005C094FC16C085E690E015C0B7018EE2EB
S1130F0090E0E7D21E5F82E001E0080FF301E80FF2
S1130F10F11D8081B70190E0DCD2802F0113F4CF62
S1130F20E8CF85E490E0B701D4D2D7FC06C0C11461
S1130F30D10441F4EC85E4FF05C0D194C194D108F7
S1130F408DE201C08BE2B70190E0C3D280E32AE0D6
S1130F50C216D1042CF08F5FFAE0CF1AD108F7CF74
S1130F60B70190E0B6D2B701C601C096B2D249C16A
S1130F70833631F0833779F0833509F052C01FC0CE
S1130F80560132E0A30EB11CF6018081898301E091
S1130F9010E0630111C05601F2E0AF0EB11CF6017E
S1130FA0C080D18096FE03C0612F70E002C06FEF55
S1130FB07FEFC60183D28C01F92DFF7713C0560150
S1130FC022E0A20EB11CF601C080D18096FE03C0BF
S1130FD0612F70E002C06FEF7FEFC60164D28C0115
S1130FE0F92DF0689F2EF3FD18C0852D90E00817A9
S1130FF0190798F4B70180E290E06BD25A94F5CFC8
S1131000F60197FC859197FE81916F01B70190E0FD
S113101060D251105A94015011090115110581F73C
S1131020F0C0843611F0893659F5560197FE09C08F
S113103024E0A20EB11CF60160817181828193814A
S11310400AC0F2E0AF0EB11CF60160817181072E77
S1131050000C880B990BF92DFF769F2E97FF09C082
S113106090958095709561957F4F8F4F9F4FF06855
S11310709F2E2AE030E0A301A0D2C82EC6183EC09D
S1131080092D853721F40F7E2AE030E01DC0097F49
S11310908F3691F018F4883559F0BCC0803719F0B8
S11310A0883711F0B7C0006104FF09C0046007C0AD
S11310B094FE08C0066006C028E030E005C020E1C8
S11310C030E002C020E132E0560107FF09C084E0AD
S11310D0A80EB11CF601608171818281938108C0E0
S11310E0F2E0AF0EB11CF6016081718180E090E006
S11310F0A30163D2C82EC6180F77902E96FE0BC09C
S1131100092D0E7FC11650F494FE0AC092FC08C04B
S1131110092D0E7E05C0DC2C092D03C0DC2C01C07A
S1131120D12E04FF0DC0FE01EC0DF11D8081803332
S113113011F4097E09C002FF06C0D394D39404C0FD
S1131140802F867809F0D39403FD10C000FF06C0F9
S11311501C2DD51478F4150D1D190CC0D51450F49C
S1131160B70180E290E0B5D1D394F8CFD51410F450
S11311705D1801C0512C04FF0FC0B70180E390E05B
S1131180A8D102FF16C001FD03C088E790E002C0A9
S113119088E590E0B7010CC0802F867851F001FFFC
S11311A002C08BE201C080E207FD8DE2B70190E04E
S11311B090D1C11630F4B70180E390E08AD1115088
S11311C0F8CFCA94F301EC0DF11D8081B70190E0D2
S11311D080D1C110F6CF15C0F4E0F51550F584E0C8
S11311E0581A93FE1EC0011125C02C8523FF27C069
S11311F00CE810E0392D3071932EF801849181119F
S113120021C0552009F4FCCCB70180E290E061D103
S11312105A94F7CFF7018681978123C08FEF9FEF10
S113122020C0B70180E290E054D15A945110F9CF14
S1131230DACF512CB701802F90E04BD1D6CF00E903
S113124010E0D8CF91108052B70190E042D10F5FE7
S11312501F4FD3CF23E0251510F483E0C1CF512CC9
S1131260C4CF60960FB6F894DEBF0FBECDBFDF913A
S1131270CF911F910F91FF90EF90DF90CF90BF908F
S1131280AF909F908F907F906F905F904F903F9022
S11312902F900895A1E21A2EAA1BBB1BFD010DC0BD
S11312A0AA1FBB1FEE1FFF1FA217B307E407F50712
S11312B020F0A21BB30BE40BF50B661F771F881FEE
S11312C0991F1A9469F760957095809590959B0184
S11312D0AC01BD01CF010895A29FB001B39FC0012D
S11312E0A39F700D811D1124911DB29F700D811D4E
S11312F01124911D0895283008F027E03327DA01DE
S1131300990F311D87FD916000966105710539F4CF
S113131032602E5F3D9330E32A95E1F708959F3FB5
S113132030F080387105610509F03C5F3C5F3D9306
S1131330913008F08068911DDF93CF931F930F9332
S1131340FF92EF92192F987F9695E92F969596958F
S1131350E90FFF27E251FF4F99273327EE24FF249B
S1131360A701E70105900894079428F4360FE71EB7
S1131370F81E491F511D660F771F881F991F069479
S1131380A1F70590079428F4E70EF81E491F561F8D
S1131390C11D770F881F991F661F0694A1F705903A
S11313A0079428F4F80E491F561FC71FD11D880F34
S11313B0991F661F771F0694A1F70590079420F4E0
S11313C0490F561FC71FD81F990F661F771F881F05
S11313D00694A9F784911095177041F0D695C79596
S11313E057954795F794E7941A95C1F7E4E9F0E027
S11313F068941590159135916591959105907FE2CA
S11314007395E118F10A430B560BC90BD009C0F7C9
S1131410E10CF11E431F561FC91FD01D7EF470330B
S113142011F48A95E6CFE894015030F0080F0AF4DD
S11314300027021708F4202F2395022F7A3328F06F
S113144079E37D932A95E9F710C07D932A9589F66F
S1131450069497956795379517951794E118F10AAF
S1131460430B560BC90BD00998F023957E917395C5
S11314707A3308F070E37C932013B8F77E9170619F
S11314807D9330F0839571E37D9370E32A95E1F7C2
S11314901124EF90FF900F911F91CF91DF91992725
S11314A087FD90950895FC010590615070400110EE
S11314B0D8F7809590958E0F9F1F0895FC01615079
S11314C0704001900110D8F7809590958E0F9F1F62
S11314D008950F931F93CF93DF93FB01238121FD85
S11314E003C08FEF9FEF2CC022FF16C046815781A7
S11314F0248135814217530744F4A081B1819D01B1
S11315002F5F3F4F318320838C93268137812F5F58
S11315103F4F3783268314C08B01EC01FB01008409
S1131520F185E02D0995892BE1F6D80116968D9168
S11315309C911797019617969C938E931697CE01BC
S1131540DF91CF911F910F9108950F931F93CF9324
S1131550DF93CDB7DEB72E970FB6F894DEBF0FBE7C
S1131560CDBF8C01FA0186E08C831A83098377FF4F
S113157002C060E070E8CB0101979E838D83A901CE
S1131580BF01CE010196FDDA4D815E8157FD0AC08F
S11315902F813885421753070CF49A01F801E20FA2
S11315A0F31F10822E960FB6F894DEBF0FBECDBF88
S11315B0DF91CF911F910F910895FA01AA27283046
S11315C051F1203181F1E8946F936E7F6E5F7F4F0C
S11315D08F4F9F4FAF4FB1E03ED0B4E03CD0670F88
S11315E0781F891F9A1FA11D680F791F8A1F911DDB
S11315F0A11D6A0F711D811D911DA11D20D009F42B
S113160068943F912AE0269F11243019305D31936C
S1131610DEF6CF010895462F4770405D4193B3E055
S11316200FD0C9F7F6CF462F4F70405D4A3318F0FC
S1131630495D31FD4052419302D0A9F7EACFB4E0AD
S1131640A6959795879577956795BA95C9F7009765
S11316506105710508959B01AC010A2E0694579506
S1131660479537952795BA95C9F7620F731F841F5D
S10D1670951FA01D0895F894FFCF04
S113167A010788130000401454434F4E563A20255C
S113168A3464206D560054454D503A2025352E3188
S109169A6620B0430000CD
S9030000FC
